:020000040800F2
:10000000000500204501000801030008AD020008BA
:10001000FD0200088D010008A30500080000000093
:1000200000000000000000000000000025030008A0
:1000300091010008000000000303000839040008D3
:100040005F0100085F0100085F0100085F01000810
:100050005F0100085F0100085F0100085F01000800
:100060005F0100085F0100085F0100085F010008F0
:100070005F0100085F0100085F0100085F010008E0
:100080005F0100085F0100085F0100085F010008D0
:100090005F0100085F0100085F0100085F010008C0
:1000A0005F0100085F0100085F0100085F010008B0
:1000B0005F0100085F0100085F0100085F010008A0
:1000C0005F0100085F0100085F0100085F01000890
:1000D0005F010008BD0400085F0100085F0100081F
:1000E0005F0100085F0100085F0100085F01000870
:1000F0005F0100085F0100085F0100085F01000860
:100100005F0100085F0100085F0100085F0100084F
:100110005F0100085F0100085F0100085F0100083F
:100120005F0100085F0100085F0100085F0100082F
:10013000DFF80CD000F018F800480047AD060008C2
:10014000000500200648804706480047FEE7FEE716
:10015000FEE7FEE7FEE7FEE7FEE7FEE7FEE7FEE777
:100160005D04000831010008064C074D06E0E06818
:1001700040F0010394E8070098471034AC42F6D3EE
:10018000FFF7DAFFEC0600080C07000800BFFEE7E7
:1001900070472DE9F041024600250026002000238B
:1001A0000024002791F803C00CF00F0591F803C05C
:1001B0000CF0100CBCF1000F03D091F802C04CEA17
:1001C000050591F800C0BCF1000F31D01468002083
:1001D0002BE04FF0010C0CFA00F3B1F800C00CEA70
:1001E00003069E4220D183004FF00F0C0CFA03F758
:1001F000BC4305FA03FC4CEA040491F803C0BCF1CB
:10020000280F06D14FF0010C0CFA00FCC2F814C004
:100210000AE091F803C0BCF1480F05D14FF0010C82
:100220000CFA00FCC2F810C0401C0828D1D314609E
:10023000B1F800C0BCF1FF0F34DD546800202EE09F
:1002400000F1080C4FF0010808FA0CF3B1F800C0F7
:100250000CEA03069E4221D183004FF00F0C0CFAEA
:1002600003F7BC4305FA03FC4CEA040491F803C00D
:10027000BCF1280F05D100F1080C08FA0CF8C2F8FF
:10028000148091F803C0BCF1480F07D100F1080CAD
:100290004FF0010808FA0CF8C2F81080401C08283A
:1002A000CED35460BDE8F0810161704700BFFEE726
:1002B00008B50121482000F025F82020ADF8000005
:1002C00010208DF8030003208DF8020069460948CC
:1002D000FFF75FFF20210748FFF7E6FF2020ADF87A
:1002E000000069460448FFF754FF20210248FFF749
:1002F000DBFF08BD000C01400018014000BFFEE715
:100300007047704729B1064A92690243044B9A61CB
:1003100004E0034A92698243014B9A6170470000EE
:1003200000100240704710B500F002F810BD000048
:100330000CB50020019000903348006840F48030F4
:100340003149086000BF3048006800F40030009078
:100350000198401C0190009818B90198B0F5A06F61
:10036000F1D12948006800F4003010B1012000905C
:1003700001E0002000900098012843D12348006844
:1003800040F01000214908600846006820F0030092
:1003900008600846006840F0020008601A4840689B
:1003A000194948600846406848600846406840F47B
:1003B000806048600846406820F47C104860084629
:1003C000406840F4E81048600846006840F08070DB
:1003D000086000BF0C48006800F000700028F9D0E9
:1003E0000948406820F00300074948600846406813
:1003F00040F00200486000BF0348406800F00C0075
:100400000828F9D10CBD0000001002400020024075
:10041000042808D14FF0E021096941F004014FF0B0
:10042000E022116107E04FF0E021096921F00401A9
:100430004FF0E0221161704710B500F0B5F80548A3
:10044000008828B10448006810B10348006880475C
:1004500010BD0000140000202800002010B5134833
:10046000006840F0010011490860084640681049E2
:1004700008400E494860084600680E4908400B498C
:1004800008600846006820F480200860084640683C
:1004900020F4FE0048604FF41F008860FFF743FF20
:1004A0004FF000600449086010BD000000100240D9
:1004B0000000FFF8FFFFF6FE08ED00E010B540F287
:1004C00025511D4800F03EF810B31B4800F064F8B9
:1004D000C4B21A48008800F40040C8B91748008820
:1004E00000F4804060B10A2C03D00020134908803A
:1004F00020E01248008840F400401049088019E0CC
:100500000D2C06D10D48008840F480400B4908802E
:1005100010E00A480088C0F30D0009490C54074850
:100520000088401C0549088008460088C72801DD6E
:100530000020088010BD000000380140300000207D
:100540003800002070B5024600240023002500205A
:1005500040F66A16B14200D100BFC1F3421501F066
:100560001F03012606FA03F3012D02D196893340B9
:1005700006E0022D02D1168A334001E0968A33400C
:100580000C12012606FA04F41688344013B10CB19B
:10059000012000E0002070BD01468888C0F30800FB
:1005A000704700BFFEE7000010480068401C0F497C
:1005B0000860084600680E49096888420FD20B4857
:1005C0000068401C0A490968884204D1094800684B
:1005D0004FF0E021486100200749088005E0012034
:1005E0000549088000200149086070471C00002070
:1005F00018000020200000201400002002E008C89D
:10060000121F08C1002AFAD170477047002001E08C
:1006100001C1121F002AFBD17047000010B56FF016
:100620000400FFF7F5FE0A4800680A49B0FBF1F044
:10063000094908700846007800EB4001C1EBC01082
:100640004FF6FF7101EAC0000449088010BD0000A8
:100650000000002000127A00320000203400002048
:100660000146114A12884A434FF0E0235A610022A2
:100670009A611A46126942F001021A6100BF4FF0F6
:10068000E022106900F001021AB100F48032002A61
:10069000F5D04FF0E022126922F001024FF0E02382
:1006A0001A6100229A61704734000020FFF7B6FFFC
:1006B000FFF7FEFD15E000200A49086001200A4905
:1006C000C1F894014FF49670FFF7CAFF0120054965
:1006D000086000200449C1F894014FF49670FFF7B8
:1006E000BFFFE8E794812142000023420C07000885
:1006F0000000002038000000FC0500084407000846
:1007000038000020C80400000C06000800A24A04BB
:1007100000000000000000000102030406070809B1
:1007200000000000000000000000000000000000C9
:100730004800000000000000000000000000000071
:0407400000000000B5
:0400000508000131BD
:00000001FF
